:020000040800F2
:10000000B0A70024AD020008314300088941000870
:100010002943000879030008098000080000000057
:10002000000000000000000000000000F14A00088D
:10003000B10300080000000049470008894B000890
:10004000C7020008C7020008C7020008C70200086C
:10005000C7020008C7020008C7020008C70200085C
:10006000C7020008C7020008C7020008C70200084C
:10007000C7020008C7020008C7020008C70200083C
:10008000C7020008C7020008C7020008C70200082C
:10009000C7020008C7020008C7020008C70200081C
:1000A000C7020008C7020008C7020008C70200080C
:1000B000C7020008C7020008C7020008C7020008FC
:1000C000C7020008C7020008C7020008C7020008EC
:1000D000C7020008C7020008C7020008C7020008DC
:1000E000C7020008C702000800000000C70200089D
:1000F000C7020008C7020008C7020008C7020008BC
:10010000C7020008C7020008C7020008C7020008AB
:10011000C7020008C7020008C7020008C70200089B
:10012000C7020008C7020008C7020008C70200088B
:10013000C7020008C7020008C7020008C70200087B
:1001400000000000000000000000000000000000AF
:10015000C7020008C7020008C7020008C70200085B
:10016000C7020008C7020008C7020008C70200084B
:10017000C7020008C7020008C7020008C70200083B
:10018000C7020008C7020008C7020008C70200082B
:10019000C7020008C7020008C7020008C70200081B
:1001A000C7020008C7020008C7020008C70200080B
:1001B000C7020008C7020008C7020008C7020008FB
:1001C000C7020008C7020008C7020008C7020008EB
:1001D000C7020008A9430008C7020008C7020008B8
:1001E000C7020008C7020008C7020008C7020008CB
:1001F000C7020008C7020008C7020008C7020008BB
:10020000C7020008C7020008C7020008C7020008AA
:10021000C7020008C7020008C7020008C70200089A
:10022000C7020008C7020008C7020008000000005B
:10023000C7020008C702000800000000C70200084B
:10024000C7020008C7020008C7020008C70200086A
:10025000C7020008C7020008C7020008C70200085A
:10026000C7020008C7020008C7020008C70200084A
:10027000C7020008C7020008C7020008000000000B
:10028000C7020008C7020008C702000800000000FB
:1002900000000000C7020008DFF80CD000F02AF8C8
:1002A00000480047D9800008B0A7002406488047CE
:1002B00006480047FEE7FEE7FEE7FEE7FEE7FEE74B
:1002C000FEE7FEE7FEE7FEE7814C00089902000822
:1002D000D2B201E000F8012B491EFBD27047002288
:1002E000F6E710B513460A4604461946FFF7F0FF35
:1002F000204610BD064C074D06E0E06840F00103C3
:1003000094E8070098471034AC42F6D3FFF7C8FFD3
:10031000688100088881000870B58D1810F8014BBD
:1003200014F0030201D110F8012B231106D110F8AB
:10033000013B03E010F8016B01F8016B521EF9D18B
:10034000ABB110F8012B04F00C048A1A0C2C03D06A
:10035000A2EB84129B1C08E010F8014BA2EB0422D4
:10036000F8E712F8014B01F8014B5B1EF9D5A942E1
:10037000D4D3002070BD0000FFE7FEE700000000BE
:1003800081B0009001B0704781B0009000994FF4A7
:100390001640086040F24810C2F2004001B07047B9
:1003A00070470000000000007047000000000000DF
:1003B000704700000000000081B0EFF3108072B6BB
:1003C0000090FFE7FEE7000080B584B04EF6000025
:1003D000C1F6F170006803904EF60400C1F6F170AA
:1003E000006802904EF60800C1F6F17000680190B6
:1003F0000199039808440390039888B1FFE7039894
:1004000040F23C01C2F2004100910231082203F0A7
:10041000BFFE009902981231042203F0B9FEFFE7F3
:1004200004B080BD0000000080B584B0039000F0EF
:100430000BFA0290039801900198013048B1FFE750
:1004400049F24870C2F200400178019808440190D6
:10045000FFE7FFE700F0F8F90299401A0199884296
:1004600001D2FFE7F6E704B080BD00000000000005
:1004700090B00F900E9100200D908020C5F60000E6
:100480000A90FFE70E9800680D99C840002800F018
:10049000CF81FFE70E9800680D9A01219140084036
:1004A0000C900C98002800F0BF81FFE70E98406880
:1004B00000F00300012807D0FFE70E98406800F025
:1004C000030002282FD1FFE70F9880680B900D984A
:1004D0004100032000FA01F10B9888430B900E981D
:1004E000C0680D99490000FA01F10B9808430B9080
:1004F0000B980F9988600F9840680B900D99012018
:1005000000FA01F10B9888430B900E984068C0F3F5
:1005100000100D9900FA01F10B9808430B900B980D
:100520000F994860FFE70E98406800F00300032829
:1005300018D0FFE70F98C0680B900D98410003207A
:1005400000FA01F10B9888430B900E9880680D9982
:10055000490000FA01F10B9808430B900B980F9992
:10056000C860FFE70E98406800F00300022826D11B
:10057000FFE70F980D996FF0030202EA510108445A
:10058000006A0B900D9800F0070081000F2000FA20
:1005900001F10B9888430B900E9800690D9901F0BA
:1005A0000701890000FA01F10B9808430B900B98A2
:1005B0000F990D9B02EA530211440862FFE70F985E
:1005C00000680B900D984100032000FA01F10B9890
:1005D00088430B900E98406800F003000D99490085
:1005E00000FA01F10B9808430B900B980F990860E3
:1005F0000E9880798007002800F01581FFE7FFE75B
:1006000044F2F440C5F60200016841F002010160C5
:10061000006800F0020009900998FFE70D9820F0AB
:10062000030040F20841C5F6000140580B900D98B8
:1006300000F0030081000F2000FA01F10B988843BD
:100640000B900F980021C5F60201884203D1FFE705
:10065000002008907AE00F9840F20041C5F60201B0
:10066000884203D1FFE7012007906CE00F9840F625
:100670000001C5F60201884203D1FFE7022006907F
:100680005EE00F9840F60041C5F60201884203D1B2
:10069000FFE70320059050E00F9841F20001C5F6F6
:1006A0000201884203D1FFE70420049042E00F9842
:1006B00041F20041C5F60201884203D1FFE705205F
:1006C000039034E00F9841F60001C5F6020188421C
:1006D00003D1FFE70620029026E00F9841F6004183
:1006E000C5F60201884203D1FFE70720019018E018
:1006F0000F9842F20001C5F60201884203D1FFE7DC
:10070000082000900AE00F9942F20042C5F602026A
:100710000A20914208BF09200090FFE7009801904D
:10072000FFE701980290FFE702980390FFE7039824
:100730000490FFE704980590FFE705980690FFE70F
:1007400006980790FFE707980890FFE708980D992B
:1007500001F00301890000FA01F10B9808430B90A6
:100760000B980D9921F0030140F20842C5F60002F2
:1007700088504FF0B04000680B900C990B9888435C
:100780000B900E988079C006002805D5FFE70C99DC
:100790000B9808430B90FFE70B984FF0B0410860AF
:1007A0000420C5F6000000680B900C990B98884354
:1007B0000B900E9880798006002805D5FFE70C99EC
:1007C0000B9808430B90FFE70B980421C5F6000136
:1007D00008600A9840680B900C990B9888430B901E
:1007E0000E9880798007002805D5FFE70C990B98B3
:1007F00008430B90FFE70B980A9948600A98006835
:100800000B900C990B9888430B900E988079C00739
:1008100028B1FFE70C990B9808430B90FFE70B9862
:100820000A990860FFE7FFE70D9801300D9029E66F
:1008300010B070470000000041F20000C5F6004013
:100840000068000C704700004AF2A830C2F2004075
:10085000006870470000000049F24870C2F2004092
:1008600002784AF2A831C2F20041086810440860D8
:10087000704700000000000080B582B0032000F047
:1008800033F902F07DFD44F21842C5F60202116808
:10089000C1F3032348F21611C0F60001CB5C03F04C
:1008A0001F03D84000900098126802F00F02895C84
:1008B00001F01F01C84040F22001C2F2004108606F
:1008C000009840F21C01C2F2004108600F2000F0C5
:1008D00013F820B1FFE701208DF8070005E000F0D4
:1008E000CBF800208DF80700FFE79DF8070002B065
:1008F00080BD00000000000080B582B0009049F289
:100900004870C2F20040007820B9FFE701208DF85E
:10091000070030E040F21C00C2F20040006849F2DB
:100920004871C2F200410A784FF47A71B1FBF2F1DA
:10093000B0FBF1F003F020FC20B1FFE701208DF8BF
:10094000070018E000980F280DD8FFE700994FF036
:10095000FF30002200F0B0F8009849F24C71C2F26A
:100960000041086003E001208DF8070003E000204B
:100970008DF80700FFE79DF8070002B080BD00007A
:1009800080B582B00190019840784EF69851CEF231
:10099000000108600198007898B3FFE7019840686B
:1009A0004EF69C51CEF200010860DDF804C0CDF88F
:1009B00000C09CF80C0000079CF80B1040EA016096
:1009C0009CF800109CF808209CF809309CF80AE07C
:1009D00040EACE409CF80DE040EA8E409CF80EE0E4
:1009E00040EA4E409CF80FC040EA0C4040EA032029
:1009F00040EA420008434EF6A051CEF200010860E2
:100A00000BE04EF69C51CEF20001002008604EF63D
:100A1000A051CEF200010860FFE702B080BD0000E7
:100A2000BFF35F8F4EF62451CEF20001086820F428
:100A3000803008604EF69451CEF20001002008602C
:100A4000704700000000000081B00090009840F066
:100A500001004EF69451CEF2000108604EF624518A
:100A6000CEF20001086840F480300860BFF34F8F79
:100A7000BFF36F8F01B0704781B0FFE744F2F440DD
:100A8000C5F60200016841F002010160006800F053
:100A9000020000900098FFE701B0704700000000DE
:100AA00080B582B0ADF80600BDF9060007F0B0FAD7
:100AB00002B080BD0000000080B586B0ADF8160021
:100AC0000491039207F0BCFA0290BDF91600019060
:100AD00002980499039A03F02FFC0146019807F04D
:100AE000B7FA06B080BD000080B582B001900198D1
:100AF00007F0D2FA02B080BD82B001900198006880
:100B0000009001990120C1F800050199002081F8A9
:100B1000F404009A916941F000619161009A516D6D
:100B20000323C1F200031943516502B0704700006E
:100B300082B001908DF8031002B0704700000000F1
:100B400082B00190ADF80210BDF802000199096869
:100B50004862002002B0704784B003908DF80B10FB
:100B6000ADF8082003980068406A00909DF80B00DB
:100B700048B9FFE7BDF80810009840EA0140039922
:100B80000968886233E003980068816A009800EB86
:100B90001140009000208DF80700FFE79DF8070046
:100BA0009DF80B100139884213D2FFE703980068C3
:100BB0009DF8071000EB8100D0F80411009800EBBD
:100BC00011400090FFE79DF8070001308DF8070005
:100BD000E4E7BDF80810009840EA0140039909686D
:100BE0009DF80B2001EB8201C1F80001FFE7002016
:100BF00004B070470000000080B582B001900198F9
:100C0000D0F8080504F0C0FD02B080BD000000006F
:100C100080B582B001908DF80310019AD2F80805D2
:100C20009DF8031001EBC10302EB8302D26C04F0C8
:100C300017FD02B080BD000080B582B001908DF834
:100C40000310019AD2F808059DF8031001EBC103C7
:100C500002EB8302D2F88C2204F05AFD02B080BD70
:100C600080B582B001900198D0F8080504F090FD9D
:100C700002B080BD0000000080B584B003908DF804
:100C80000B109DF80B00000600280CD5FFE7039819
:100C90009DF80B1001F00F0101EBC10100EB810089
:100CA0003C3001900CE003989DF80B1001F00F010F
:100CB00001EBC10100EB810000F51F700190FFE71F
:100CC00003980068019906F063FD8DF80A009DF80D
:100CD0000A0004B080BD000080B584B002908DF899
:100CE00007109DF80700000600280FD5FFE70298BF
:100CF0009DF8071001F00F0101EBC10100EB81002D
:100D00003C3000900099012048700FE002989DF857
:100D1000071001F00F0101EBC10100EB810000F5AC
:100D20001F700090009900204870FFE79DF80700B1
:100D300000F00F0000990870FFE7029890F8BC04DB
:100D4000012804D1FFE702208DF80F0014E002997A
:100D5000012081F8BC04FFE7FFE7029800680099D2
:100D600005F036FFFFE70299002081F8BC04FFE799
:100D700000208DF80F00FFE79DF80F0004B080BD44
:100D800080B584B002908DF807109DF8070000F040
:100D90000F0002994968884204D9FFE701208DF8C5
:100DA0000F004DE09DF80700000600280FD5FFE773
:100DB00002989DF8071001F00F0101EBC10100EB53
:100DC00081003C3000900099012048700FE00298AB
:100DD0009DF8071001F00F0101EBC10100EB81004C
:100DE00000F51F700090009900204870FFE70099FF
:100DF000002088709DF8070000F00F00009908702F
:100E0000FFE7029890F8BC04012804D1FFE7022014
:100E10008DF80F0014E00299012081F8BC04FFE76F
:100E2000FFE702980068009906F05AFAFFE7029976
:100E3000002081F8BC04FFE700208DF80F00FFE7D9
:100E40009DF80F0004B080BD80B586B004908DF889
:100E50000F10ADF80C208DF80B3000208DF80A0033
:100E60009DF80F00000600280FD5FFE704989DF8B5
:100E70000F1001F00F0101EBC10100EB81003C30CC
:100E800001900199012048700FE004989DF80F101F
:100E900001F00F0101EBC10100EB810000F51F70B3
:100EA0000190019900204870FFE79DF80F0000F0C5
:100EB0000F0001990870BDF80C000199C8609DF8F9
:100EC0000B00019908710198407820B1FFE7019962
:100ED00008780881FFE79DF80B00022804D1FFE79E
:100EE000019900204871FFE7FFE7049890F8BC04DF
:100EF000012804D1FFE702208DF8170015E00499BE
:100F0000012081F8BC04FFE7FFE70498006801991D
:100F100005F006FDFFE70499002081F8BC04FFE717
:100F20009DF80A008DF81700FFE79DF8170006B03E
:100F300080BD00000000000080B586B005908DF8EF
:100F400013100392029305989DF8131001F00F01FE
:100F500001EBC10100EB810000F51F7001900398C7
:100F6000019908610298019988610199002008623D
:100F7000019948709DF8130000F00F000199087066
:100F800005980069012804D1FFE703980199486199
:100F9000FFE79DF81300000738B9FFE7059A1068CE
:100FA0000199127C06F050F806E0059A1068019944
:100FB000127C06F039FAFFE7002006B080BD000081
:100FC00080B584B002908DF807109DF8070000F0FE
:100FD0000F0002994968884204D9FFE701208DF883
:100FE0000F0058E09DF80700000600280FD5FFE726
:100FF00002989DF8071001F00F0101EBC10100EB11
:1010000081003C3000900099012048700DE002986A
:101010009DF8071001EBC10100EB810000F51F7086
:101020000090009900204870FFE700990120887027
:101030009DF8070000F00F0000990870FFE7029884
:1010400090F8BC04012804D1FFE702208DF80F00BE
:1010500021E00299012081F8BC04FFE7FFE7029834
:101060000068009906F08CF99DF80700000740B968
:10107000FFE7029A1068117C02F2C44206F0E0F821
:10108000FFE7FFE70299002081F8BC04FFE700209A
:101090008DF80F00FFE79DF80F0004B080BD000041
:1010A00080B586B005908DF81310039202930598D1
:1010B0009DF8131001F00F0101EBC10100EB81005D
:1010C0003C30019003980199086102980199886168
:1010D0000199002008620199012048709DF81300D1
:1010E00000F00F000199087005980069012804D1EB
:1010F000FFE7039801994861FFE79DF81300000797
:1011000038B9FFE7059A10680199127C05F09CFF39
:1011100006E0059A10680199127C06F085F9FFE750
:10112000002006B080BD000080B58CB00B900B98FD
:1011300000680A900A9809900B98006806F070FC05
:10114000002840F0BF83FFE70B98006806F0D8FC4A
:1011500008B9FFE7B6E30B98006806F0D1FC8007FA
:10116000002807D5FFE70B980168486900F00200E6
:101170004861FFE70B98006806F0C2FCC006002833
:1011800062D5FFE70B980168886920F0100088613C
:101190000A98006A03900B98039901F00F0101EB84
:1011A000C10100EB810000F51F700290039800F46C
:1011B000F0110220B0EB514F23D1FFE7BDF80C0036
:1011C00047F6F07108421BD0FFE70A9802990969B7
:1011D000039AC2F30A1206F0A3FC039847F6F071D3
:1011E00000EA0103029A106900EB131010610398E2
:1011F00000EA01020299086A00EB12100862FFE798
:101200001BE0039800F4F0110620B0EB514F12D10F
:10121000FFE70A980B9901F2C441082206F080FC0E
:10122000039847F6F07100EA01020299086A00EBA0
:101230001210086200E0FFE7FFE70B980168886979
:1012400040F010008861FFE70B98006806F058FC3A
:101250000003002840F1A680FFE7002005900B98CE
:10126000006806F0F9FB0790FFE70798002800F0F8
:101270009880FFE79DF81C00C007002800F08A80D6
:10128000FFE70B9800689DF8141006F021FC06900B
:101290009DF81800C00760B1FFE70998059900EBB9
:1012A00041110120C1F8080B0B98059903F0CCF807
:1012B000FFE79DF81800000700280CD5FFE7099804
:1012C000059900EB41110820C1F8080B0B9805990E
:1012D00003F072F8FFE79DF81800C006002808D553
:1012E000FFE70998059900EB41111020C1F8080BA0
:1012F000FFE79DF81800800700282DD5FFE70A9822
:1013000040690006002808D5FFE70999D1F80408CC
:1013100040F48060C1F80408FFE70B98059901EBE1
:10132000C10100EB810000F51F7002900298C078A7
:10133000012809D1FFE702990020C8700B989DF899
:10134000141000F0D1FAFFE70998059900EB41115C
:101350000220C1F8080BFFE79DF81800800600285E
:1013600008D5FFE70998059900EB41112020C1F845
:10137000080BFFE79DF819008006002809D5FFE754
:101380000998059900EB41114FF40050C1F8080B82
:10139000FFE7FFE7059801300590079840080790A0
:1013A00063E7FFE70B98006806F0AAFB40030028FC
:1013B00040F1C680FFE70B98006806F039FB079004
:1013C00000200590FFE70798002800F0B880FFE7AD
:1013D0009DF81C00C007002800F0AA80FFE70B98CA
:1013E00000689DF8141006F04BFB06909DF818005D
:1013F000C00700283ED0FFE7059800F00F0101204C
:1014000000FA01F10491049B099AD2F83418994327
:10141000C2F834180999059A01EB4211C1F808097C
:101420000B98006901281FD1FFE70B98059901EB84
:10143000C10100EB81018A6CC86C1044C864059836
:1014400088B9FFE70B98059901EBC10100EB81001A
:10145000406D40B9FFE70B99086801F2C4420121D1
:1014600005F0EEFEFFE7FFE70B989DF81410FFF77D
:10147000CFFBFFE79DF818000007002808D5FFE71D
:101480000998059900EB41110820C1F80809FFE708
:101490009DF81800C006002808D5FFE709980599AF
:1014A00000EB41111020C1F80809FFE79DF8180072
:1014B0004006002808D5FFE70998059900EB41117F
:1014C0004020C1F80809FFE79DF8180080070028B0
:1014D00022D5FFE70A98059906F036FA0B98059988
:1014E00001EBC10100EB81003C3002900298C07812
:1014F000012809D1FFE702990020C8700B989DF8D8
:10150000141000F0E1F9FFE70998059900EB41118B
:101510000220C1F80809FFE79DF81800000600281E
:1015200005D5FFE70B98059903F072F8FFE7FFE791
:1015300005980130059007984008079043E7FFE7BA
:101540000B98006806F0DCFAC00F00B3FFE70999BA
:10155000D1F8040820F00100C1F804080B9890F8B5
:10156000F404012808D1FFE70B98002180F8F41457
:101570000B98FFF7DDFA03E00B9800F0B5FBFFE7EF
:101580000B980168486900F000404861FFE70B983C
:10159000006806F0B5FA0005002811D5FFE70998A4
:1015A000D0F80808C00720B1FFE70B9800F030FC26
:1015B000FFE70B980168486900F400604861FFE7A5
:1015C0000B98006806F09CFA0001002820D5FFE780
:1015D0000B980168486900F0006048610B9890F82A
:1015E000F40480B9FFE70B98012180F8F4140B98FC
:1015F0000068406DC0F383000B9AC2F8F8040B98A2
:10160000FFF796FA03E00B9800F002FCFFE7FFE714
:101610000B98006806F074FAC004002840F190802E
:10162000FFE70999D1F8040820F00100C1F8040887
:101630000B980068102106F087F900200890FFE75A
:1016400008980B99496888423BD2FFE709980899A6
:1016500000EB41114FF67F30C1F808090999089A4B
:1016600001EB4212D2F8001921F40011C2F800195E
:101670000999089A01EB4212D2F8001941F0006171
:10168000C2F800190999089A01EB4211C1F8080B38
:101690000998089900EB4111D1F8000B20F40010D3
:1016A000C1F8000B0998089900EB4111D1F8000B23
:1016B00040F00060C1F8000BFFE708980130089087
:1016C000BEE70999D1F81C0840F00110C1F81C08C8
:1016D0000B98006B78B1FFE70999D1F8840840F0C6
:1016E0000B00C1F884080999D1F8440840F00B00B8
:1016F000C1F844080FE00999D1F8140842F22B020E
:101700001043C1F814080999D1F8100840F00B00F3
:10171000C1F81008FFE70999D1F8000820F4FE602D
:10172000C1F800080B9A1068117C02F2C44205F05F
:1017300087FD0B980168486900F480504861FFE715
:101740000B98006806F0DCF9800400281FD5FFE73D
:101750000B98006805F054F90B98006806F038F90A
:101760000B99C8600B980068019001F0DDFD0146FF
:1017700001980B9A127B06F0CFFA0B9800F088FACA
:101780000B980168486900F400504861FFE70B9826
:10179000006806F0B5F9000700280AD5FFE70B98A6
:1017A00000F0AEFA0B980168486900F00800486143
:1017B000FFE70B98006806F0A3F90006002825D57E
:1017C000FFE70A99886920F0800088610120059070
:1017D000FFE705980B994968884216D2FFE70B98F6
:1017E000059901EBC10100EB810090F87F0201280F
:1017F00006D1FFE70B989DF81410FFF73DFAFFE7BD
:10180000FFE7059801300590E3E7FFE70B980068D4
:1018100006F076F9C00200280ED5FFE700200590FB
:101820000B989DF8141000F04FF80B980168486968
:1018300000F480104861FFE70B98006806F060F93B
:10184000800200280ED5FFE7002005900B989DF838
:10185000141000F049F80B980168486900F4001072
:101860004861FFE70B98006806F04AF9400000283D
:101870000AD5FFE70B98FFF7BFF90B980168486995
:1018800000F080404861FFE70B98006806F038F9E7
:101890004007002815D5FFE70B98006840680390C3
:1018A0009DF80C004007002804D5FFE70B98FFF7D0
:1018B000D7F9FFE7039A0B9801684868104348601E
:1018C000FFE7FFE70CB080BD80B582B001908DF8D6
:1018D00003100198D0F808059DF8031003F0DCFF11
:1018E00002B080BD0000000080B582B001908DF88C
:1018F00003100198D0F808059DF8031003F0E0FFED
:1019000002B080BD000000002DE9F04F95B01390AB
:10191000139820B9FFE701208DF8530051E1139887
:1019200000681290139890F8BD0440B9FFE713992E
:10193000002081F8BC04139800F04AF9FFE71399DE
:10194000032081F8BD041298C06BC005002804D4A0
:10195000FFE7139900200861FFE71398006805F07E
:1019600067FB13980E9001680F9141688268C36805
:10197000D0F810C044698569C669076AD0F8248028
:10198000D0F82890D0F82CA0D0F830B0D0F834E0BF
:1019900068461090C0F824E00F98DDF840E0CEF8DB
:1019A00020B0CEF81CA0CEF81890CEF81480CEF857
:1019B0001070CEF80C60CEF80850CEF80440CEF887
:1019C00000C005F035F840B1FFE71399022081F817
:1019D000BD0401208DF85300F3E013980068002146
:1019E0000D9106F0F9F80D988DF84700FFE79DF886
:1019F000470013994968884245D2FFE713989DF83C
:101A0000471001EBC10100EB8101012081F83D008D
:101A10009DF84700139900EBC00201EB820181F8A9
:101A20003C009DF84700139900EBC00201EB8201D6
:101A3000A1F8440013989DF8471001EBC10100EB99
:101A40008101002081F8400013999DF8472002EBA6
:101A5000C20201EB8201886413999DF8472002EBD2
:101A6000C20201EB8201C86413999DF8472002EB82
:101A7000C20201EB82014865FFE79DF84700013093
:101A80008DF84700B3E700208DF84700FFE79DF889
:101A900047001399496888423ED2FFE713989DF8A2
:101AA000471001EBC10100EB8101002081F87D02AC
:101AB0009DF84710139A01EBC10302EB830282F8F1
:101AC0007C1213999DF8472002EBC20201EB8201C0
:101AD00081F8800213999DF8472002EBC20201EBC6
:101AE0008201C1F8880213999DF8472002EBC202D7
:101AF00001EB8201C1F88C0213999DF8472002EB9B
:101B0000C20201EB8201C1F89402FFE79DF8470091
:101B100001308DF84700BAE713980A9001680B91DD
:101B200041688268C368D0F810C044698569C66995
:101B3000076AD0F82480D0F82890D0F82CA0D0F8EC
:101B400030B0D0F834E068460C90C0F824E00B9830
:101B5000DDF830E0CEF820B0CEF81CA0CEF818901A
:101B6000CEF81480CEF81070CEF80C60CEF8085085
:101B7000CEF80440CEF800C005F0FEF840B1FFE713
:101B80001399022081F8BD0401208DF8530018E05C
:101B90001399002081F838001399012081F8BD04C1
:101BA0001398406A012804D1FFE71398FEF7A4FFB9
:101BB000FFE71398006805F0C7F800208DF8530080
:101BC000FFE79DF8530015B0BDE8F08F000000005E
:101BD00080B5B8B03790002036903590349033906F
:101BE000329003A8BC21FEF77AFB379800680021E9
:101BF000C4F20801884248D1FFE74FF480200390E7
:101C00004FF44010249003A800F082F918B1FFE7C8
:101C1000FEF7D2FBFFE700F06FF9FFE744F2E04088
:101C2000C5F60200016841F001010160006800F0A2
:101C3000010002900298FFE74FF4C050329002205A
:101C400033900020349035900A2036900020C5F65D
:101C5000020032A9FEF70CFCFFE744F2D840C5F6BB
:101C60000200016841F000610160006800F000605E
:101C700001900198FFE76520009000221146FEF7D1
:101C80001BFF0098FEF70CFFFFE738B080BD000097
:101C900080B582B0019001208DF803000198C068E2
:101CA00020B9FFE700208DF803000CE00198C06820
:101CB000022804D1FFE701208DF8030002E0FEF7BF
:101CC0007BFBFFE7FFE70198D0F808059DF80310BC
:101CD00003F0A6FE0198D0F8080503F051FE02B00B
:101CE00080BD00000000000080B582B00190019826
:101CF000D0F8080503F078FE02B080BD00000000B7
:101D000080B582B001900198D0F8080503F078FE04
:101D100002B080BD0000000080B584B002908DF854
:101D20000710FFE7029890F8BC04012804D1FFE7F0
:101D300002208DF80F001AE00299012081F8BC04FE
:101D4000FFE7FFE79DF80700029981F83800029845
:101D500000689DF8071005F0AFFFFFE7029900202B
:101D600081F8BC04FFE700208DF80F00FFE79DF825
:101D70000F0004B080BD000080B582B001900199D1
:101D8000D1F8080501F2C44103F06EFE02B080BD37
:101D900080B584B00290029800680190FFE7029835
:101DA00090F8BC04012804D1FFE702208DF80F0051
:101DB00027E00299012081F8BC04FFE7FFE70298C1
:101DC000806A01280BD1FFE702988069012806D0BC
:101DD000FFE70199886B40F480308863FFE7029841
:101DE000006805F065FD0298006804F095FFFFE7C4
:101DF0000299002081F8BC04FFE700208DF80F0055
:101E0000FFE79DF80F0004B080BD00000000000057
:101E100080B582B001900198D0F8080503F08CFEDF
:101E200001980168D1F8000E40F00100C1F8000EE1
:101E30000198006A48B1FFE74EF61051CEF200015A
:101E4000086840F006000860FFE702B080BD0000AF
:101E500080B584B0029044F60C00C5F6020000681C
:101E600000F004010020B0EB910F13D1FFE744F61E
:101E70000C00C5F60200006800F0070002998842D5
:101E800004D0FFE701208DF80F002EE000208DF830
:101E90000F002AE044F60C01C5F60201086820F0A4
:101EA0000700029A10430860FEF7CEFC0190FFE79E
:101EB00044F60400C5F60200006800F4005100205A
:101EC000B0EB513F0DD1FFE7FEF7BEFC0199401A80
:101ED000B0F57A7F04D9FFE701208DF80F0004E008
:101EE000E6E700208DF80F00FFE79DF80F0004B033
:101EF00080BD00000000000044F60C01C5F60201A0
:101F0000086840F080700860704700000000000022
:101F100080B59AB0189000208DF857008DF85600C3
:101F20001898C0780007002848D5FFE71898406E39
:101F3000149078B1FFE71498B0F5801F13D0FFE735
:101F40001498B0F5001F16D0FFE71498B0F5401FA5
:101F500019D019E044F22C41C5F60201086840F49A
:101F60000030086014E018980430022102F0F0FB01
:101F70008DF857000CE018982430022102F0D0FCB4
:101F80008DF8570004E003E001208DF85700FFE7CB
:101F90009DF8570060B9FFE744F25041C5F60201D1
:101FA000086820F44010189A526E1043086004E04C
:101FB0009DF857008DF85600FFE7FFE71898407826
:101FC000C007002840D0FFE71898406D1390042800
:101FD00020D81399DFE801F0030C141C1D0044F213
:101FE0002C41C5F60201086840F40030086015E095
:101FF00018980430002102F0ABFB8DF857000DE07B
:1020000018982430002102F08BFC8DF8570005E071
:1020100004E003E001208DF85700FFE79DF857002A
:1020200060B9FFE744F25041C5F60201086820F0AC
:102030000700189A526D1043086004E09DF857009D
:102040008DF85600FFE7FFE71898407880070028D2
:102050004BD5FFE71898806D129088B1FFE7129872
:10206000402816D0FFE7129880281AD0FFE7129870
:10207000C0281ED0FFE71298B0F5807F1AD01AE072
:1020800044F22C41C5F60201086840F400300860B3
:1020900015E018980430002102F05AFB8DF8570023
:1020A0000DE018982430002102F03AFC8DF857001A
:1020B00005E004E003E001208DF85700FFE79DF8FC
:1020C000570060B9FFE744F25041C5F602010868C5
:1020D00020F4E070189A926D1043086004E09DF8B7
:1020E00057008DF85600FFE7FFE718984078400743
:1020F000002850D5FFE71898D0F8A4001190A0B19F
:10210000FFE71198B0F5001F18D0FFE71198B0F560
:10211000800F1BD0FFE71198B0F5C00F1ED0FFE76E
:102120001198B0F5000F1AD01AE044F22C41C5F610
:102130000201086840F40030086015E01898043087
:10214000002102F005FB8DF857000DE018982430AF
:10215000002102F0E5FB8DF8570005E004E003E004
:1021600001208DF85700FFE79DF8570068B9FFE799
:1021700044F25841C5F60201086820F46000189A3C
:10218000D2F8A4201043086004E09DF857008DF8B1
:102190005600FFE7FFE7189840780007002850D561
:1021A000FFE71898D0F8A8001090A0B1FFE71098AA
:1021B000B0F1807F18D0FFE71098B0F1007F1BD0FE
:1021C000FFE71098B0F1407F1ED0FFE71098B0F104
:1021D000806F1AD01AE044F22C41C5F6020108685B
:1021E00040F40030086015E018980430002102F037
:1021F000AFFA8DF857000DE018982430002102F056
:102200008FFB8DF8570005E004E003E001208DF816
:102210005700FFE79DF8570068B9FFE744F25841BF
:10222000C5F60201086820F0E060189AD2F8A820EC
:102230001043086004E09DF857008DF85600FFE752
:10224000FFE71898C078800700283ED5FFE7189868
:10225000806C0F90F0B1FFE70F98102808D0FFE7CF
:102260000F9820280DD0FFE70F98302811D012E0EA
:1022700044F22C41C5F60201086840F400300860C1
:102280000DE018980430022102F062FA8DF8570030
:1022900005E004E003E001208DF85700FFE79DF81A
:1022A000570060B9FFE744F24C41C5F602010868E7
:1022B00020F03000189A926C1043086004E09DF8FA
:1022C00057008DF85600FFE7FFE718984078C006E2
:1022D00000284ED5FFE71898C06D0E90A0B1FFE71B
:1022E0000E98B0F5805F18D0FFE70E98B0F5005F4C
:1022F0001BD0FFE70E98B0F5405F1ED0FFE70E98A9
:10230000B0F5804F1AD01AE044F22C41C5F6020114
:10231000086840F40030086015E018980430002187
:1023200002F016FA8DF857000DE0189824300021BD
:1023300002F0F6FA8DF8570005E004E003E0012012
:102340008DF85700FFE79DF8570060B9FFE744F2AA
:102350005041C5F60201086820F4E040189AD26D99
:102360001043086004E09DF857008DF85600FFE721
:10237000FFE718984078800600284CD5FFE71898AA
:10238000006E0D90C8B1FFE70D98B0F5803F15D0F5
:10239000FFE70D98B0F5003F18D0FFE70D98B0F5B6
:1023A000403F1BD0FFE70D98B0F5802F17D0FFE717
:1023B0000D98B0F5A02F13D013E016E01898043054
:1023C000012102F0C5F98DF857000EE0189824306D
:1023D000012102F0A5FA8DF8570006E005E004E0BF
:1023E00003E001208DF85700FFE79DF8570060B922
:1023F000FFE744F25041C5F60201086820F4E020EE
:10240000189A126E1043086004E09DF857008DF88A
:102410005600FFE7FFE718984078400600284ED5A1
:10242000FFE71898D0F8AC000C90C8B1FFE70C9803
:10243000B0F1805F15D0FFE70C98B0F1005F18D0C5
:10244000FFE70C98B0F1405F1BD0FFE70C98B0F1AC
:10245000804F17D0FFE70C98B0F1A04F13D013E0D6
:1024600016E018980430012102F072F98DF8570037
:102470000EE018982430012102F052FA8DF857002E
:1024800006E005E004E003E001208DF85700FFE7D7
:102490009DF8570068B9FFE744F25841C5F60201BC
:1024A000086820F0E040189AD2F8AC201043086089
:1024B00004E09DF857008DF85600FFE7FFE71898F5
:1024C0004078000600283BD5FFE71898C06E0B90B7
:1024D000D8B1FFE70B98B0F1805F05D0FFE70B980C
:1024E000B0F1005F09D011E044F22C41C5F60201C1
:1024F000086840F4003008600CE0189804300121AE
:1025000002F026F98DF8570004E003E001208DF871
:102510005700FFE79DF8570060B9FFE744F25041CC
:10252000C5F60201086820F04050189AD26E104398
:10253000086004E09DF857008DF85600FFE7FFE7BC
:102540001898C078C007002837D0FFE71898406C6B
:102550000A90032817D80A99DFE801F014020B1338
:1025600044F22C41C5F60201086840F400300860CE
:102570000DE018980430022102F0EAF88DF85700B7
:1025800005E004E003E001208DF85700FFE79DF827
:10259000570060B9FFE744F24C41C5F602010868F4
:1025A00020F00300189A526C1043086004E09DF874
:1025B00057008DF85600FFE7FFE71898807840062F
:1025C000002840F1B480FFE744F60001C5F602019F
:1025D000086840F480700860FEF736F91690FFE74F
:1025E00044F60000C5F602000068C00500280CD4BF
:1025F000FFE7FEF729F91699401A652804D3FFE78B
:1026000003208DF8570000E0EAE79DF85700002806
:1026100040F08780FFE744F27040C5F60200006892
:1026200000F440701899D1F8B01001F4407188425C
:1026300013D0FFE744F27041C5F60201086820F4A8
:1026400040701790086840F480300860086820F4F3
:102650008030086017980860FFE71898D0F8B0003D
:10266000B0F5807F1FD1FFE7FEF7EEF81690FFE789
:1026700044F27040C5F60200006800F0020100203C
:10268000B0EB510F0ED1FFE7FEF7DEF81699401AB6
:1026900041F28931884204D3FFE703208DF85700C7
:1026A00000E0E5E7FFE79DF85700A0BBFFE7FFE785
:1026B0001898D0F8B00000F44070B0F5407F13D106
:1026C000FFE744F21041C5F60201086820F47C508F
:1026D000189AD2F8B0204FF6F043C0F6FF731A40B4
:1026E00040EA1210086008E044F21041C5F6020109
:1026F000086820F47C500860FFE71898D0F8B020F4
:102700006FF31F3244F27041C5F6020108681043AE
:102710000860FFE704E09DF857008DF85600FFE7DA
:1027200004E09DF857008DF85600FFE7FFE7189882
:102730000078C007002800F04C80FFE71898806FF1
:10274000099028282BD80999DFE801F015292929B3
:102750002929292916292929292929291E29292907
:1027600029292929262929292929292927292929DE
:1027700029292929280016E018980430012101F0A0
:10278000E7FF8DF857000EE018982430012102F081
:10279000C7F88DF8570006E005E004E003E00120EB
:1027A0008DF85700FFE79DF8570060B9FFE744F246
:1027B0005441C5F60201086820F03800189A926F5B
:1027C0001043086004E09DF857008DF85600FFE7BD
:1027D000FFE7189800788007002839D5FFE7189898
:1027E000406F0890052819D80899DFE801F0030424
:1027F0000C14151616E018980430012101F0A8FFFA
:102800008DF857000EE018982430012102F088F866
:102810008DF8570006E005E004E003E001208DF8A4
:102820005700FFE79DF8570060B9FFE744F25441B5
:10283000C5F60201086820F00700189A526F10438D
:10284000086004E09DF857008DF85600FFE7FFE7A9
:1028500018980078400700283BD5FFE71898D0F873
:1028600090000790052819D80799DFE801F00304C4
:102870000C14151616E018980430012101F068FFB9
:102880008DF857000EE018982430012102F048F826
:102890008DF8570006E005E004E003E001208DF824
:1028A0005700FFE79DF8570068B9FFE744F2584129
:1028B000C5F60201086820F00700189AD2F89020A7
:1028C0001043086004E09DF857008DF85600FFE7BC
:1028D000FFE718980078800600284ED5FFE7189883
:1028E000D0F88C000690C8B1FFE70698B0F1805F81
:1028F00015D0FFE70698B0F1005F18D0FFE7069803
:10290000B0F1405F1BD0FFE70698B0F1804F17D0C1
:10291000FFE70698B0F1A04F13D013E016E0189827
:102920000430002101F014FF8DF857000EE01898D4
:102930002430022101F0F4FF8DF8570006E005E095
:1029400004E003E001208DF85700FFE79DF85700F1
:1029500068B9FFE744F25441C5F60201086820F067
:10296000E040189AD2F88C201043086004E09DF8EB
:1029700057008DF85600FFE7FFE7189800784006EB
:1029800000284ED5FFE71898D0F898000590C8B1F8
:10299000FFE70598B0F5806F15D0FFE70598B0F513
:1029A000006F18D0FFE70598B0F5406F1BD0FFE728
:1029B0000598B0F5805F17D0FFE70598B0F5A05FE8
:1029C00013D013E016E018980430002101F0C0FE87
:1029D0008DF857000EE018982430022101F0A0FF76
:1029E0008DF8570006E005E004E003E001208DF8D3
:1029F0005700FFE79DF8570068B9FFE744F25841D8
:102A0000C5F60201086820F4E050189AD2F8982020
:102A10001043086004E09DF857008DF85600FFE76A
:102A2000FFE718980078000600284ED5FFE71898B1
:102A3000D0F89C000490C8B1FFE70498B0F5005F9F
:102A400015D0FFE70498B0F5804F18D0FFE7049841
:102A5000B0F5C04F1BD0FFE70498B0F5004F17D07A
:102A6000FFE70498B0F5204F13D013E016E0189854
:102A70000430002101F06CFE8DF857000EE018982C
:102A80002430022101F04CFF8DF8570006E005E0EC
:102A900004E003E001208DF85700FFE79DF85700A0
:102AA00068B9FFE744F25841C5F60201086820F40E
:102AB0006040189AD2F89C201043086004E09DF80A
:102AC00057008DF85600FFE7FFE7189800780007D9
:102AD000002820D5FFE71898D0F88000B0F5805F77
:102AE0000CD1FFE718982430022101F019FF20B122
:102AF000FFE701208DF85600FFE7FFE744F254415D
:102B0000C5F60201086820F44050189AD2F88020D7
:102B100010430860FFE718980078C006002820D509
:102B2000FFE71898D0F89400B0F5807F0CD1FFE74C
:102B300018982430022101F0F3FE20B1FFE70120B4
:102B40008DF85600FFE7FFE744F25841C5F6020151
:102B5000086820F44070189AD2F894201043086056
:102B6000FFE718988078000700283CD5FFE7189801
:102B7000D0F8A000039050B1FFE70398B0F5803F74
:102B80000DD0FFE70398B0F5003F10D010E0189883
:102B90000430002101F0DCFD8DF857000CE018989E
:102BA0002430022101F0BCFE8DF8570004E003E060
:102BB00001208DF85700FFE79DF8570068B9FFE73F
:102BC00044F25841C5F60201086820F44030189AD2
:102BD000D2F8A0201043086004E09DF857008DF85B
:102BE0005600FFE7FFE718988078400700283FD598
:102BF000FFE71898D0F884000290B0F5801F0AD043
:102C0000FFE70298B0F5001F0ED0FFE70298B0F57D
:102C1000401F11D011E044F22C41C5F602010868B2
:102C200040F4003008600CE018982430012101F0D5
:102C300077FE8DF8570004E003E001208DF857007F
:102C4000FFE79DF8570068B9FFE744F25441C5F625
:102C50000201086820F44010189AD2F8842010432A
:102C6000086004E09DF857008DF85600FFE7FFE785
:102C700018988078C007A8B3FFE71898C06C019037
:102C800028B1FFE70198B0F5803F09D010E044F289
:102C90002C41C5F60201086840F4003008600BE0E2
:102CA00018980430022101F053FD8DF8570003E01D
:102CB00001208DF85700FFE79DF8570060B9FFE746
:102CC00044F24C41C5F60201086820F48030189A9D
:102CD000D26C1043086004E09DF857008DF8560050
:102CE000FFE7FFE71898C078800600280CD5FFE7BB
:102CF00018982430022101F013FE20B1FFE70120D3
:102D00008DF85600FFE7FFE71898807880070028C5
:102D10003AD5FFE71898C06F0090D0B1FFE7009850
:102D2000B0F5807F0AD0FFE70098B0F5007F0ED0A5
:102D3000FFE70098B0F5407F0AD00BE044F22C4149
:102D4000C5F60201086840F40030086006E005E0BE
:102D500004E003E001208DF85700FFE79DF85700DD
:102D600060B9FFE744F25441C5F60201086820F457
:102D70004070189AD26F1043086004E09DF8570025
:102D80008DF85600FFE7FFE718988078C006002806
:102D90000CD5FFE744F25041C5F60201086820F067
:102DA0000040189A126F10430860FFE71898C07827
:102DB000C00600280DD5FFE744F21041C5F6020118
:102DC000086820F48040189AD2F8B42010430860B4
:102DD000FFE718988078800600280CD5FFE744F2BA
:102DE0005041C5F60201086820F08070189A926E72
:102DF00010430860FFE71898C0784006002811D5F6
:102E0000FFE7FFE744F21041C5F60201086820F42D
:102E1000004008601898D0F8B8200868104308608F
:102E2000FFE7FFE71898C078000600280CD5FFE7F9
:102E300044F24C41C5F60201086820F04050189A4F
:102E4000126D10430860FFE718988078000600288C
:102E50000DD5FFE744F25441C5F60201086820F49D
:102E60004000189AD2F8882010430860FFE79DF8C8
:102E7000560020B9FFE700208DF8670003E001202D
:102E80008DF86700FFE79DF867001AB080BD00006D
:102E900080B586B004900391049820B9FFE7012023
:102EA0008DF817003CE2039842F20001C5F20021C0
:102EB000096801F00F01884216D9FFE742F20000CD
:102EC000C5F20020016821F00F01039A114301604F
:102ED000006800F00F000399884204D0FFE701204A
:102EE0008DF817001CE2FFE70498007840070028DF
:102EF00019D5FFE70498006944F21841C5F60201AC
:102F0000096801F0700188420CD9FFE744F21841CA
:102F1000C5F60201086820F07000049A1269104397
:102F20000860FFE7FFE7049800780007002819D53C
:102F3000FFE70498406944F21C41C5F602010968A4
:102F400001F0700188420CD9FFE744F21C41C5F63C
:102F50000201086820F07000049A5269104308606A
:102F6000FFE7FFE704980078C006002819D5FFE7BF
:102F70000498806944F21C41C5F60201096801F415
:102F8000E06188420CD9FFE744F21C41C5F602011A
:102F9000086820F4E060049A926910430860FFE733
:102FA000FFE7049800788006002819D5FFE7049809
:102FB000C06944F22041C5F60201096801F07001C0
:102FC00088420CD9FFE744F22041C5F602010868A7
:102FD00020F07000049AD26910430860FFE7FFE711
:102FE000049800788007002819D5FFE70498C06886
:102FF00044F21841C5F60201096801F00F01884248
:103000000CD9FFE744F21841C5F60201086820F028
:103010000F00049AD26810430860FFE7FFE70498A6
:103020000078C007002800F08C80FFE744F21841C8
:10303000C5F60201086820F47060049A9268104393
:10304000086004984068022811D1FFE744F200406C
:10305000C5F60200006800F400310020B0EB514FCB
:1030600004D1FFE701208DF8170059E13EE00498F4
:103070004068032811D1FFE744F20040C5F6020082
:10308000006800F000710020B0EB516F04D1FFE741
:1030900001208DF8170043E127E0049840680128DB
:1030A00011D1FFE744F20040C5F60200006800F4C9
:1030B00080710020B0EB112F04D1FFE701208DF8C3
:1030C00017002DE110E044F20040C5F60200006850
:1030D00000F004010020B0EB910F04D1FFE70120C4
:1030E0008DF817001CE1FFE7FFE7FFE744F210410E
:1030F000C5F60201086820F00700049A52681043E0
:103100000860FDF7A1FB0190FFE744F21040C5F60F
:103110000200006800F0380004994968B0EBC10F64
:103120000ED0FFE7FDF790FB0199401A41F289317B
:10313000884204D3FFE703208DF81700F0E0E4E7AE
:10314000FFE7049800788007002819D5FFE7049866
:10315000C06844F21841C5F60201096801F00F0188
:1031600088420CD2FFE744F21841C5F60201086814
:1031700020F00F00049AD26810430860FFE7FFE7D1
:10318000039842F20001C5F20021096801F00F0125
:10319000884216D2FFE742F20000C5F20020016823
:1031A00021F00F01039A11430160006800F00F0045
:1031B0000399884204D0FFE701208DF81700AFE0A3
:1031C000FFE7049800784007002819D5FFE7049826
:1031D000006944F21841C5F60201096801F0700166
:1031E00088420CD2FFE744F21841C5F60201086894
:1031F00020F07000049A126910430860FFE7FFE7AF
:10320000049800780007002819D5FFE70498406962
:1032100044F21C41C5F60201096801F070018842C0
:103220000CD2FFE744F21C41C5F60201086820F009
:103230007000049A526910430860FFE7FFE70498A2
:103240000078C006002819D5FFE70498806944F289
:103250001C41C5F60201096801F4E06188420CD204
:10326000FFE744F21C41C5F60201086820F4E06063
:10327000049A926910430860FFE7FFE7049800781A
:103280008006002819D5FFE70498C06944F2204160
:10329000C5F60201096801F0700188420CD2FFE70F
:1032A00044F22041C5F60201086820F07000049A3B
:1032B000D26910430860FFE7FFE700F061F844F2CD
:1032C0001842C5F602021168C1F3032348F2161131
:1032D000C0F60001CB5C03F01F03D84000900098BB
:1032E000126802F00F02895C01F01F01C84040F231
:1032F0002001C2F200410860009840F21C01C2F2B5
:103300000041086049F24C70C2F200400068FDF7CD
:10331000F3FA8DF80B009DF80B008DF81700FFE70E
:103320009DF8170006B080BD80B582B000F028F887
:1033300044F21842C5F602021168C1F3032348F2B1
:103340001611C0F60001CB5C03F01F03D8400190BA
:103350000198126802F00F02895C01F01F0120FA47
:1033600001F140F22000C2F200400160019940F2F8
:103370001C02C2F200421160006802B080BD000071
:103380008AB044F21040C5F60200006800F0380030
:1033900001460191182800F269810199DFE811F0D6
:1033A0001900660166016601660166016601660133
:1033B0003A00660166016601660166016601660102
:1033C00040006601660166016601660166016601EC
:1033D000460044F20040C5F60200006800F02001FB
:1033E0000020B0EB511F0ED0FFE744F20040C5F6BD
:1033F00002000068C0F3C10149F20000C0F2D03001
:10340000C840029005E049F20000C0F2D0300290BE
:10341000FFE731E140F60010C0F23D0002902BE1E1
:1034200047F64000C0F27D10029025E144F22840AA
:10343000C5F60200016801F0030108910068C0F3BD
:103440000510079044F22C40C5F60200006800F019
:1034500001000690069844F23441C5F6020109685D
:1034600089B2C908484300EE100AB8EE400A8DED53
:10347000040A0798002800F0F580FFE708980090FC
:1034800048B1FFE70098012869D0FFE700980228BB
:1034900000F08980ABE044F20040C5F6020000680D
:1034A00000F020010020B0EB511F33D0FFE744F2C1
:1034B0000040C5F602000068C0F3C10149F20000F7
:1034C000C0F2D030C84005909DED050AB8EE400A24
:1034D0009DED071AB8EE411A80EE010A44F2304021
:1034E000C5F6020000686FF35F2001EE100AB8EE27
:1034F000411A9DED042A9FED633A82EE032A31EED4
:10350000021AB7EE002A31EE021A20EE010A8DED02
:10351000030A23E09DED070AB8EE401A9FED5B0A0F
:1035200080EE010A44F23040C5F6020000686FF3F5
:103530005F2001EE100AB8EE411A9DED042A9FEDBE
:10354000513A82EE032A31EE021AB7EE002A31EE2A
:10355000021A20EE010A8DED030AFFE76BE09DEDF4
:10356000070AB8EE401A9FED480A80EE010A44F2BD
:103570003040C5F6020000686FF35F2001EE100ACC
:10358000B8EE411A9DED042A9FED3E3A82EE032AE1
:1035900031EE021AB7EE002A31EE021A20EE010ACD
:1035A0008DED030A47E09DED070AB8EE401A9FED46
:1035B000340A80EE010A44F23040C5F60200006889
:1035C0006FF35F2001EE100AB8EE411A9DED042A58
:1035D0009FED2C3A82EE032A31EE021AB7EE002A52
:1035E00031EE021A20EE010A8DED030A23E09DED73
:1035F000070AB8EE401A9FED240A80EE010A44F251
:103600003040C5F6020000686FF35F2001EE100A3B
:10361000B8EE411A9DED042A9FED1A3A82EE032A74
:1036200031EE021AB7EE002A31EE021A20EE010A3C
:103630008DED030AFFE744F23040C5F60200006852
:1036400081B2012000EB512009909DED030A9DED10
:10365000091AB8EE411A80EE010ABCEEC00A8DEDDF
:10366000020A02E000200290FFE705E040F60010A9
:10367000C0F23D000290FFE702980AB0704700BF19
:1036800020BCBE4B000000460024744A0024744C49
:1036900080B58CB00A900A9828B9FFE701208DF810
:1036A0002F0000F064BD0A980078C007002800F0E1
:1036B000B980FFE744F21040C5F60200006800F050
:1036C0003800069044F22840C5F6020000680590D4
:1036D000069810280AD0FFE7069818281CD1FFE7A3
:1036E000059800F00300022816D1FFE744F20040DD
:1036F000C5F60200006800F400310020B0EB514F25
:1037000009D0FFE70A98406828B9FFE701208DF843
:103710002F0000F02CBD84E0FFE70A984068B0F568
:10372000803F09D1FFE744F20041C5F60201086875
:1037300040F48030086032E00A98406868B9FFE7DA
:1037400044F20041C5F60201086820F480300860A8
:10375000086820F48020086020E00A984068B0F5EE
:10376000A02F0DD1FFE744F20041C5F60201086821
:1037700040F480200860086840F4803008600CE065
:1037800044F20041C5F60201086820F48030086068
:10379000086820F480200860FFE7FFE7FFE7FFE705
:1037A0000A984068F0B1FFE7FDF74EF80990FFE78F
:1037B00044F20040C5F60200006800F40031002029
:1037C000B0EB514F0DD1FFE7FDF73EF80999401AD4
:1037D000652805D3FFE703208DF82F0000F0C7BC54
:1037E000E6E71DE0FDF730F80990FFE744F20040FE
:1037F000C5F60200006800F400310020B0EB514F24
:103800000DD0FFE7FDF720F80999401A652805D388
:10381000FFE703208DF82F0000F0A9BCE6E7FFE7E3
:10382000FFE7FFE70A9800788007002840F115813C
:10383000FFE744F21040C5F60200006800F03800CF
:10384000049044F22840C5F60200006803900498F2
:1038500050B1FFE70498182878D1FFE79DF80C00D5
:103860008007002872D1FFE744F20040C5F602004D
:10387000006800F004010020B0EB910F09D0FFE7D1
:103880000A98C06828B9FFE701208DF82F0000F0E2
:103890006EBC44F20041C5F60201086820F0190030
:1038A0000A9AD26810430860FCF7CEFF0990FFE740
:1038B00044F20040C5F60200006800F00401002058
:1038C000B0EB910F0DD1FFE7FCF7BEFF0999401A4D
:1038D000032805D3FFE703208DF82F0000F047BC35
:1038E000E6E7FFE7FCF7A8FF41F2030188421DD895
:1038F000FFE70A98006940280AD1FFE744F2044133
:10390000C5F602010868202262F3113008600CE05D
:1039100044F20441C5F60201086820F47C300A9A9A
:10392000126940EA02300860FFE70CE044F204410B
:10393000C5F60201086820F0FE400A9A126940EAC2
:1039400002600860FFE7FFE7FFE785E00A98C068CC
:1039500000285BD0FFE744F20041C5F60201086889
:1039600020F019000A9AD26810430860FCF76CFF37
:103970000990FFE744F20040C5F60200006800F03D
:1039800004010020B0EB910F0CD1FFE7FCF75CFFC6
:103990000999401A032804D3FFE703208DF82F006C
:1039A000E5E3E7E7FFE7FCF747FF41F20301884261
:1039B0001DD8FFE70A98006940280AD1FFE744F2C2
:1039C0000441C5F602010868202262F31130086044
:1039D0000CE044F20441C5F60201086820F47C3092
:1039E0000A9A126940EA02300860FFE70CE044F2EC
:1039F0000441C5F60201086820F0FE400A9A1269E7
:103A000040EA02600860FFE7FFE724E044F200417B
:103A1000C5F60201086820F001000860FCF714FFF9
:103A20000990FFE744F20040C5F60200006800F08C
:103A300004010020B0EB910F0CD0FFE7FCF704FF6E
:103A40000999401A032804D3FFE703208DF82F00BB
:103A50008DE3E7E7FFE7FFE7FFE70A980078C00696
:103A6000002840F1EB80FFE744F21040C5F6020069
:103A7000006800F03800029044F22840C5F60200C9
:103A800000680190029808280AD0FFE702981828D9
:103A900050D1FFE7019800F0030001284AD1FFE769
:103AA00044F20040C5F60200006800F48071002076
:103AB000B0EB112F09D0FFE70A98C069802804D025
:103AC000FFE701208DF82F0051E3FFE7FCF7B4FE7C
:103AD00041F2030188421DD8FFE70A98006A2028B6
:103AE0000AD1FFE744F20441C5F60201086810223A
:103AF00062F39E6008600CE044F20441C5F60201E6
:103B0000086820F0F8400A9A126A40EA8260086069
:103B1000FFE70CE044F20C41C5F60201086820F012
:103B20007C500A9A126A40EA02600860FFE7FFE7E9
:103B3000FFE782E00A98C069002858D0FFE744F206
:103B40000041C5F60201086840F080000860FCF7FB
:103B50007BFE0990FFE744F20040C5F602000068D2
:103B600000F480710020B0EB112F0CD1FFE7FCF7BF
:103B70006BFE0999401A032804D3FFE703208DF850
:103B80002F00F4E2E7E7FFE7FCF756FE41F20301FE
:103B900088421DD8FFE70A98006A20280AD1FFE76B
:103BA00044F20441C5F602010868102262F39E60E7
:103BB00008600CE044F20441C5F60201086820F0F8
:103BC000F8400A9A126A40EA82600860FFE70CE057
:103BD00044F20C41C5F60201086820F07C500A9AB4
:103BE000126A40EA02600860FFE7FFE724E044F25F
:103BF0000041C5F60201086820F080000860FCF76B
:103C000023FE0990FFE744F20040C5F60200006879
:103C100000F480710020B0EB112F0CD0FFE7FCF70F
:103C200013FE0999401A032804D3FFE703208DF8F7
:103C30002F009CE2E7E7FFE7FFE7FFE70A9800783D
:103C4000000700284FD5FFE70A98406928B3FFE72F
:103C500044F27441C5F60201086840F001000860B2
:103C6000FCF7F2FD0990FFE744F27440C5F602004C
:103C7000006800F002010020B0EB510F0CD1FFE70B
:103C8000FCF7E2FD0999401A032804D3FFE703205B
:103C90008DF82F006BE2E7E724E044F27441C5F6AB
:103CA0000201086820F001000860FCF7CDFD0990D2
:103CB000FFE744F27440C5F60200006800F002011C
:103CC0000020B0EB510F0CD0FFE7FCF7BDFD0999C8
:103CD000401A032804D3FFE703208DF82F0046E2A3
:103CE000E7E7FFE7FFE70A980078800600284FD54E
:103CF000FFE70A98806928B3FFE744F20041C5F660
:103D00000201086840F480500860FCF79DFD0990AE
:103D1000FFE744F20040C5F60200006800F40051DD
:103D20000020B0EB513F0CD1FFE7FCF78DFD099966
:103D3000401A032804D3FFE703208DF82F0016E272
:103D4000E7E724E044F20041C5F60201086820F4E8
:103D500080500860FCF778FD0990FFE744F20040CE
:103D6000C5F60200006800F400510020B0EB513F9E
:103D70000CD0FFE7FCF768FD0999401A032804D32B
:103D8000FFE703208DF82F00F1E1E7E7FFE7FFE70A
:103D90000A9800784007002840F1A780FFE744F622
:103DA0000001C5F60201086840F480700860FCF765
:103DB0004BFD0990FFE744F60000C5F602000068DD
:103DC000C00500280CD4FFE7FCF73EFD0999401A16
:103DD000652804D3FFE703208DF82F00C7E1EAE749
:103DE000FFE70A988068012809D1FFE744F2704193
:103DF000C5F60201086840F00100086031E00A9849
:103E0000806868B9FFE744F27041C5F602010868AE
:103E100020F001000860086820F0040008601FE03E
:103E20000A98806805280DD1FFE744F27041C5F675
:103E30000201086840F004000860086840F00100D2
:103E400008600CE044F27041C5F60201086820F0F9
:103E500001000860086820F004000860FFE7FFE741
:103E6000FFE7FFE70A988068F8B1FFE7FCF7ECFC92
:103E70000990FFE744F27040C5F60200006800F0C8
:103E800002010020B0EB510F0ED1FFE7FCF7DCFC84
:103E90000999401A41F28931884204D3FFE703208F
:103EA0008DF82F0063E1E5E71EE0FCF7CDFC0990FB
:103EB000FFE744F27040C5F60200006800F002011E
:103EC0000020B0EB510F0ED0FFE7FCF7BDFC0999C5
:103ED000401A41F28931884204D3FFE703208DF86C
:103EE0002F0044E1E5E7FFE7FFE70A98406A002872
:103EF00000F03981FFE744F21040C5F60200006887
:103F000000F03800182800F0E080FFE70A98406AC7
:103F1000022840F0B480FFE744F20041C5F60201F8
:103F2000086820F080700860FCF78EFC0990FFE7BD
:103F300044F20040C5F60200006800F00071002065
:103F4000B0EB516F0CD0FFE7FCF77EFC0999401AEB
:103F5000032804D3FFE703208DF82F0007E1E7E7EC
:103F6000FFE744F22841C5F60201086840F2F33247
:103F700090430A9B9A6ADB6A42EA03121043086084
:103F80000A99086BD1F834C08B6BCA6B01386FF398
:103F90005F204FF60061CFF6FF7101EB4C2189B233
:103FA00008440021CFF6FF7101EB034101F4FE014B
:103FB00008444FF07F4101EB026101F0FE410844EB
:103FC00044F23041C5F602010860FFE744F22C419B
:103FD000C5F602010091086820F00100086044F273
:103FE0003442C5F6020210684FF6F87398430A9BF4
:103FF0009B6C40EAC3001060086820F00C000A9A2D
:10400000126C10430860086820F002000A9A526C93
:1040100010430860086840F480300860086840F485
:1040200000300860086840F480200860086840F0AC
:104030000100086044F20041C5F60201086840F042
:1040400080700860FCF700FC0990FFE744F2004034
:10405000C5F60200006800F000710020B0EB516F5F
:104060000CD1FFE7FCF7F0FB0999401A032804D3B1
:10407000FFE703208DF82F0079E0E7E724E044F222
:104080000041C5F60201086820F080700860FCF766
:10409000DBFB0990FFE744F20040C5F60200006830
:1040A00000F000710020B0EB516F0CD0FFE7FCF77F
:1040B000CBFB0999401A032804D3FFE703208DF8AE
:1040C0002F0054E0E7E7FFE74CE044F22840C5F654
:1040D00002000068089044F23040C5F60200006813
:1040E00007900A98406A012837D0FFE7089800F047
:1040F00003000A99896A88422FD1FFE7089800F4E3
:104100007C710A98C06AB0EB111F26D1FFE70798AF
:104110006FF35F200A99096B013988421DD1FFE7CF
:10412000BDF81C100A98406B0138B0EB512F14D128
:10413000FFE7079800F4FE010A98806B0138B0EBA6
:10414000114F0AD1FFE7079800F0FE410A98C06BB3
:104150000138B0EB116F04D0FFE701208DF82F007C
:1041600005E0FFE7FFE700208DF82F00FFE79DF84F
:104170002F000CB080BD000080B582B00190019886
:1041800000F0D6FC02B080BDFFE7FEE700000000B3
:1041900083B0029001918DF8032000208DF8020079
:1041A000FFE79DF802009DF80310884229DAFFE737
:1041B0000298000F092809D8FFE70298000F303055
:1041C00001999DF8022001F8120009E002993720B8
:1041D00000EB117001999DF8022001F81200FFE731
:1041E00002980001029001989DF8021000EB410135
:1041F00000204870FFE79DF8020001308DF80200B2
:10420000CFE703B07047000080B586B00020019072
:104210000590049003900290FCF702FC01980121A4
:104220008DF808108DF8090003901F228DF81020DA
:1042300087228DF811208DF812008DF813008DF86B
:1042400014108DF815108DF816008DF8170002A8BF
:10425000FCF796FB0420FCF7F7FB06B080BD0000DE
:1042600082B0FFE744F2E040C5F60200016841F089
:1042700080010160006800F0800001900198FFE774
:10428000FFE744F2E040C5F60200016841F0010199
:104290000160006800F0010000900098FFE702B0A4
:1042A000704700000000000080B549F6BC30C2F243
:1042B000004040F20001C2F20041002201F078F912
:1042C00018B1FFE7FCF778F8FFE749F6BC30C2F217
:1042D000004040F25801C2F2004101F091FC18B1D7
:1042E000FFE7FCF769F8FFE749F6BC30C2F200408F
:1042F00040F29001C2F2004102F02EFA18B1FFE73D
:10430000FCF75AF8FFE749F6BC30C2F2004001F072
:10431000D7FD18B1FFE7FCF74FF8FFE7FDF7ECFD1D
:1043200080BD000000000000FFE7FEE70000000085
:10433000FFE7FEE70000000088B0079006910592B5
:10434000079800F0070004900498C0F107000528C2
:1043500003D3FFE70420019004E00498C0F10700B4
:104360000190FFE70198039004980430062803D8D1
:10437000FFE70020009003E0049803380090FFE777
:104380000098029006980399012202FA01F101397E
:104390000840029B984005999A40013A1140084311
:1043A00008B070470000000080B549F69860C2F27E
:1043B0000040FCF7B9FE80BD80B586B00590049141
:1043C000059800680390039802900398006C019090
:1043D0000298049900EB4110D0F8080B0090019866
:1043E00043F20B01C4F6547188420FD3FFE79DF8E6
:1043F00001000006002809D5FFE70298049900EBA8
:1044000041114FF40040C1F8080BFFE70598FDF794
:10441000B3FC019843F20B01C4F6547188420DD3EA
:10442000FFE705980069012808D1FFE705990868AA
:1044300001F2C442012102F003FFFFE7002006B0B1
:1044400080BD00000000000080B588B00790069194
:10445000079800680490049803900498006C0290F8
:104460000398069900EB4110D0F8080B01900798CB
:104470000069012840F08180FFE79DF804000007F3
:10448000002818D5FFE7029843F20B01C4F65471D7
:1044900088420FD3FFE79DF805000006002809D5E4
:1044A000FFE70398069900EB41114FF40040C1F873
:1044B000080BFFE760E09DF804008006002808D59F
:1044C000FFE70398069900EB41112020C1F8080B83
:1044D00051E09DF8040010F0280F4AD1FFE7029840
:1044E00043F20B01C4F6547188420FD3FFE79DF8E5
:1044F00005000006002809D5FFE70398069900EBA0
:1045000041114FF40040C1F8080B31E007980699BB
:1045100001EBC10100EB810000F51F7005900598CB
:10452000C0690399069A01EB4211D1F8101B6FF391
:10453000DF41401A05990862069898B9FFE7059887
:10454000806940B9FFE70799086801F2C442012178
:1045500002F076FE05E0059908690A6A10440861D0
:10456000FFE7FFE707989DF81810FCF765FBFFE7EA
:1045700000E0FFE7FFE7FFE747E0029843F20A1198
:10458000C4F65471884224D1FFE79DF80500000667
:10459000002809D5FFE70398069900EB41114FF475
:1045A0000040C1F8080B13E09DF8040080060028C5
:1045B00008D5FFE70398069900EB41112020C1F8C8
:1045C000080BFFE707989DF81810FCF735FBFFE78D
:1045D0001AE0069890B9FFE70798069901EBC10128
:1045E00000EB8100D0F8940240B9FFE70799086812
:1045F00001F2C442002102F023FEFFE707989DF874
:104600001810FCF719FBFFE7FFE7002008B080BD9A
:1046100080B58CB00A9009910A98006808900898B3
:1046200007900A98099901EBC10100EB81003C3029
:10463000069006988169006A884204D9FFE7012044
:104640008DF82F0079E006998869096A401A05906B
:1046500005980699C968884204D9FFE70698C0689A
:104660000590FFE70598033080080490FFE707985E
:10467000099900EB4110D0F8180981B2049A002082
:10468000914202900FD3FFE706988269016A0020E9
:104690009142029007D2FFE706988069002818BF70
:1046A00001200290FFE70298C00770B3FFE7069968
:1046B0008869096A401A059005980699C968884270
:1046C00004D9FFE70698C0680590FFE70598033016
:1046D000800804900898069909699DF82420BDF87F
:1046E0001430DDF828C09CF810C0EE46CEF800C0AB
:1046F00003F0F2FB059A0699086910440861059ACF
:104700000699086A10440862B1E706998869096A3F
:1047100088420ED8FFE7099800F00F010120884079
:104720000390039A0799D1F834089043C1F83408EC
:10473000FFE700208DF82F00FFE79DF82F000CB059
:1047400080BD000000000000704700000000000075
:1047500080B586B00490039100208DF8070044F2E4
:104760002840C5F60200006800F00300032804D1C9
:10477000FFE701208DF81700CBE044F20041C5F6B9
:104780000201086820F080600860FCF75DF8029084
:10479000FFE744F20040C5F60200006800F0006147
:1047A0000020B0EBD16F0CD0FFE7FCF74DF8029979
:1047B000401A032804D3FFE703208DF81700A8E070
:1047C000E7E7FFE744F22841C5F60201086820F454
:1047D0007C30049A126840EA023008600499486804
:1047E000D1F808C0CB680A6901386FF35F204FF633
:1047F0000061CFF6FF7101EB4C2189B20844002122
:10480000CFF6FF7101EB034101F4FE0108444FF0C4
:104810007F4101EB026101F0FE41084444F238415E
:10482000C5F602010860FFE744F22C41C5F602011B
:104830000091086820F0C000049A52691043086093
:10484000086820F02000049A926910430860086804
:1048500020F01000086044F23C42C5F602021068E5
:104860004FF6F8739843049BDB6940EAC30010607D
:10487000086840F010000860039848B9FFE744F268
:104880002C41C5F60201086840F40020086016E0DB
:104890000398012809D1FFE744F22C41C5F6020133
:1048A000086840F48010086008E044F22C41C5F626
:1048B0000201086840F400100860FFE7FFE744F2D7
:1048C0000041C5F60201086840F080600860FBF70F
:1048D000BBFF0290FFE744F20040C5F6020000680B
:1048E00000F000610020B0EBD16F0CD1FFE7FBF7C7
:1048F000ABFF0299401A032804D3FFE703208DF889
:10490000170006E0E7E7FFE79DF807008DF81700BE
:10491000FFE79DF8170006B080BD00000000000012
:1049200080B586B00490039100208DF8070044F212
:104930002840C5F60200006800F00300032804D1F7
:10494000FFE701208DF81700CBE044F20041C5F6E7
:104950000201086820F080500860FBF775FF0290A4
:10496000FFE744F20040C5F60200006800F0005185
:104970000020B0EB517F0CD0FFE7FBF765FF0299F9
:10498000401A032804D3FFE703208DF81700A8E09E
:10499000E7E7FFE744F22841C5F60201086820F086
:1049A0007C70049A126840EA0250086004994868D2
:1049B000D1F808C0CB680A6901386FF35F204FF661
:1049C0000061CFF6FF7101EB4C2189B20844002150
:1049D000CFF6FF7101EB034101F4FE0108444FF0F3
:1049E0007F4101EB026101F0FE41084444F2404185
:1049F000C5F602010860FFE744F22C41C5F602014A
:104A00000091086820F44060049A526910430860DD
:104A1000086820F40070049A9269104308600868DE
:104A200020F48070086044F24442C5F60202106827
:104A30004FF6F8739843049BDB6940EAC3001060AB
:104A4000086840F480700860039848B9FFE744F2B2
:104A50002C41C5F60201086840F48000086016E0A9
:104A60000398012809D1FFE744F22C41C5F6020161
:104A7000086840F40000086008E044F22C41C5F6E4
:104A80000201086840F080700860FFE7FFE744F229
:104A90000041C5F60201086840F080500860FBF74D
:104AA000D3FE0290FFE744F20040C5F60200006822
:104AB00000F000510020B0EB517F0CD1FFE7FBF775
:104AC000C3FE0299401A032804D3FFE703208DF8A0
:104AD000170006E0E7E7FFE79DF807008DF81700ED
:104AE000FFE79DF8170006B080BD00000000000041
:104AF000704700000000000084B00390039800900D
:104B000000980078ADF808000098013000900098F7
:104B10000078ADF80600BDF80610BDF8080040EAC0
:104B20000120ADF80A00BDF80A0004B0704700008B
:104B300080B582B0009000980138B0F1807F03D337
:104B4000FFE70120019019E0009801384EF21401AE
:104B5000CEF2000108604FF0FF300F2103F078FA29
:104B60004EF21801CEF20001002008604EF2100251
:104B7000CEF20002072111600190FFE7019802B018
:104B800080BD00000000000080B5FBF765FE80BD21
:104B900080B59EB00BA84C21FBF7A1FB0020019033
:104BA0000A90099008900790069005900490039051
:104BB0000220FDF74DF9FFE70020029044F61800AF
:104BC000C5F60200016841F440410160006800F44C
:104BD0004040029040F22C40C5F60000016841F0D0
:104BE00001010160006800F0010002900298FFE7F7
:104BF000FFE744F61800C5F60200006800F4005014
:104C0000B0F5005F01D0FFE7F3E722200B90012011
:104C10000E9040210F9111900221149100201590C7
:104C2000042216923C221792189119911A910C2184
:104C30001B911C901D900BA8FEF72AFD18B1FFE7F1
:104C4000FBF7BAFBFFE73F2003900320049000200E
:104C50000590082006904020079008904FF480614E
:104C600009910A9003A80421FEF712F918B1FFE791
:104C7000FBF7A2FBFFE71EB080BD000000000000B4
:104C800081B04EF68851CEF20001086840F4700001
:104C9000086042F20000C5F20020006800F00F003A
:104CA00006280AD8FFE742F20001C5F20021086891
:104CB000072262F303000860FFE744F20041C5F6F3
:104CC0000201086840F00100086044F21042C5F695
:104CD00002020020106008684EF67F52CEF6F622DF
:104CE0001040086042F20000C5F20020006800F0A9
:104CF0000F0008280AD3FFE742F20001C5F20021A5
:104D00000868072262F303000860FFE744F21841D5
:104D1000C5F6020100200090086044F21C41C5F66F
:104D20000201086044F22041C5F60201086044F225
:104D30002842C5F6020240F20021C0F202211160B1
:104D400044F22C42C5F602020021C0F2FF111160AC
:104D500044F23042C5F6020240F28021C0F2011155
:104D6000116044F23442C5F60202106044F2384247
:104D7000C5F60202116044F23C42C5F60202106020
:104D800044F24042C5F60202116044F24441C5F6C5
:104D90000201086044F20042C5F60202116821F4E3
:104DA0008021116044F26041C5F60201086041F2C1
:104DB0000001C5F600410968B0EB517F07D1FFE75C
:104DC00048F20811C5F2001101200860FFE744F223
:104DD0000001C5F2002143F2D200086001B0704723
:104DE00080B5D0F8B82252689047002818BF032039
:104DF00080BD00000000000080B582B001900091ED
:104E0000019890F89C02013802280ED8FFE700981C
:104E10004088012808D1FFE701990020C1F8A402C9
:104E2000019800F08DF8FFE704E00198009900F088
:104E30002BF8FFE702B080BD0020704700000000A3
:104E4000002070470000000080B584B003900291FC
:104E500001920398029A019B0021009100F06CFDE1
:104E6000009804B080BD000080B584B0039002912A
:104E700001920398029A019B0021009100F068FEC4
:104E8000009804B080BD000080B582B00190009110
:104E90000198802100F014FE0198002100F010FE1E
:104EA00002B080BD0000000080B584B00390029184
:104EB000019203990320C1F8940201980399C1F863
:104EC000580101980399C1F85C010398029A019B6B
:104ED0000021009100F030FD009804B080BD00007A
:104EE00080B582B0019001990520C1F89402019823
:104EF0000023009319461A4600F01EFD009802B0E8
:104F000080BD00000000000080B584B003900291D5
:104F1000019203990220C1F89402019803998861D3
:104F200001980399C8610398029A019B002100919E
:104F300000F00EFE009804B080BD000000000000EC
:104F400080B582B0019001990420C1F894020198C3
:104F50000023009319461A4600F0FAFD009802B0AB
:104F600080BD00000000000080B582B08DF8070011
:104F700000919DF8070060B9FFE7009A48F23410ED
:104F8000C0F6000049F29C71C2F2004100F098FAAC
:104F90000BE0009A48F23410C0F6000049F29C7110
:104FA000C2F2004100F08CFAFFE749F29C70C2F2B5
:104FB000004002B080BD000082B08DF80700009173
:104FC00000991220088040F22400C2F2004002B092
:104FD000704700000000000080B582B08DF8070027
:104FE00000919DF8070060B9FFE7009A48F226108B
:104FF000C0F6000049F29C71C2F2004100F060FA74
:105000000BE0009A48F22610C0F6000049F29C71AD
:10501000C2F2004100F054FAFFE749F29C70C2F27C
:10502000004002B080BD000082B08DF80700009102
:1050300000990420088040F23800C2F2004002B01B
:10504000704700000000000080B584B08DF80F00AC
:105050000291029A48F23F10C0F6000049F29C719A
:10506000C2F20041019100F02BFA019804B080BD1A
:1050700080B582B08DF8070000919DF8070060B9F7
:10508000FFE7009A48F25210C0F6000049F29C7106
:10509000C2F2004100F014FA0BE0009A48F25210FC
:1050A000C0F6000049F29C71C2F2004100F008FA1B
:1050B000FFE749F29C70C2F2004002B080BD0000E0
:1050C00080B582B08DF80700009100991A20088001
:1050D000FBF77AF940F23C00C2F2004002B080BD1A
:1050E00080B584B0039002910298C088012805D051
:1050F000FFE703980299FFF7C7FE21E0039890F8B5
:105100009C12481E0191022804D3FFE7019803284E
:105110000AD00FE0039900208860039800F108018D
:105120000122FFF7F1FE0AE00398011D0122FFF7BB
:10513000EBFE04E003980299FFF7A6FEFFE7FFE706
:1051400004B080BD0000000080B588B007900691D3
:105150000020ADF8160004908DF80F000698C07876
:10516000013801460291062800F21E810299DFE80B
:1051700011F0070011002E001B011B01E8000001C7
:105180000798D0F8B4120A68007C0DF11601904718
:10519000049013E10798007C60B9FFE70798D0F806
:1051A000B802816A0DF11600884704900499022024
:1051B00048700BE00798D0F8B802C16A0DF11600EC
:1051C00088470490049902204870FFE7F6E00698AB
:1051D000807801460191052800F2A8800199DFE856
:1051E00001F0031E39546F8A0798D0F8B402406862
:1051F00050B1FFE70798D0F8B4124A68007C0DF16F
:1052000016019047049009E007980699FFF73CFEC5
:105210009DF80F0001308DF80F00FFE790E0079830
:10522000D0F8B402806850B1FFE70798D0F8B41204
:105230008A68007C0DF116019047049009E00798F8
:105240000699FFF721FE9DF80F0001308DF80F0041
:10525000FFE775E00798D0F8B402C06850B1FFE7E7
:105260000798D0F8B412CA68007C0DF11601904777
:10527000049009E007980699FFF706FE9DF80F00D5
:1052800001308DF80F00FFE75AE00798D0F8B4021C
:10529000006950B1FFE70798D0F8B4120A69007CA2
:1052A0000DF116019047049009E007980699FFF761
:1052B000EBFD9DF80F0001308DF80F00FFE73FE098
:1052C0000798D0F8B402406950B1FFE70798D0F8CA
:1052D000B4124A69007C0DF116019047049009E070
:1052E00007980699FFF7D0FD9DF80F0001308DF863
:1052F0000F00FFE724E00798D0F8B402806950B1AE
:10530000FFE70798D0F8B4128A69007C0DF1160106
:105310009047049009E007980699FFF7B5FD9DF8BE
:105320000F0001308DF80F00FFE709E0079806999C
:10533000FFF7AAFD9DF80F0001308DF80F00FFE781
:105340003CE00798007C48B9FFE70798D0F8B8021E
:10535000416B0DF116008847049009E00798069903
:10536000FFF792FD9DF80F0001308DF80F00FFE769
:1053700024E00798007C60B9FFE70798D0F8B802EE
:10538000016B0DF1160088470490049907204870BE
:1053900009E007980699FFF777FD9DF80F000130A7
:1053A0008DF80F00FFE709E007980699FFF76CFDFD
:1053B0009DF80F0001308DF80F00FFE79DF80F00FA
:1053C00008B1FFE72AE00698C08818B3FFE7BDF8E8
:1053D0001600C8B1FFE7BDF816000699C9888842D3
:1053E00004DAFFE7BDF81600009003E00698C088D5
:1053F0000090FFE70098ADF8160007980499BDF8F3
:105400001620FFF781FD04E007980699FFF73CFDA1
:10541000FFE703E00798FFF793FDFFE708B080BDC3
:1054200083B0029000208DF8070002980090FFE7FB
:105430000098007848B1FFE79DF8070001308DF82B
:105440000700009801300090F2E79DF8070003B0D4
:10545000704700000000000080B582B0019000910C
:10546000019890F89C02013802281FD8FFE70098A5
:10547000C088022805D0FFE701980099FFF704FDD6
:1054800019E001990120C8600198D0F8A40230B158
:10549000FFE70199C86840F00200C860FFE7019883
:1054A00000F10C010222FFF72FFD04E001980099A2
:1054B000FFF7EAFCFFE702B080BD0000000000003B
:1054C00080B586B005900491039200208DF80B0002
:1054D000059808B9FFE73DE0059801900198FFF7AE
:1054E0009FFF0146022000EB4100039908800398CA
:1054F000007804999DF80B2088549DF80B0001302A
:105500008DF80B0004999DF80B20032088549DF81A
:105510000B0001308DF80B00FFE701980078C8B14F
:10552000FFE70198007804999DF80B2088540198B2
:10553000013001909DF80B0001308DF80B000499AB
:105540009DF80B20002088549DF80B0001308DF849
:105550000B00E2E706B080BD82B08DF807000020A6
:105560008DF806009DF8070001460091032814D825
:105570000099DFE801F002060A0E00208DF806000F
:105580000FE003208DF806000BE001208DF80600E7
:1055900007E003208DF8060003E003208DF80600E5
:1055A000FFE79DF8060002B0704700000000000011
:1055B00090B180B50023C0F8B832C0F8C4320029D9
:1055C000C0F8D03218BFC0F8B412012180F89C1284
:1055D000027000F0EDF880BD03207047000000006D
:1055E00080B582B001908DF8031000208DF8020084
:1055F0008DF801000198D0F8C8029DF80310FBF760
:10560000BFFB8DF802009DF80200FFF7A5FF8DF8A3
:1056100001009DF8010002B080BD00000000000004
:1056200080B582B001908DF8031000208DF8020043
:105630008DF801000198D0F8C8029DF80310FBF71F
:105640004BFB8DF802009DF80200FFF785FF8DF8F7
:1056500001009DF8010002B080BD000000000000C4
:10566000B0B5044689B194F89C0203284ED1D4F811
:10567000B8024269002A49D00020C4F8D40220466A
:105680009047002808BF0020B0BDD4F8940202283B
:1056900036D1D4E9071081420DD90B1A20461146A4
:1056A0001A46E361FFF7E0FB0021002200232046B9
:1056B00000F042F924E00FD1A16981420CD3D4F863
:1056C0009802814208D20021002220460025FFF7DF
:1056D000CBFBC4F89852E7E794F89C02032808D162
:1056E000D4F8B802C16821B10020C4F8D402204621
:1056F00088478021204600F0E3F92046FFF7F0FBC1
:1057000094F8A00210B1002084F8A0020020B0BDDF
:1057100010B5044669B194F89C0203281DD1D4F851
:10572000B80282690020CAB1C4F8D402204690476A
:1057300014E0D4F89402032824D1D4E95703984202
:1057400010D9C01AC4F85C019842114638BF03460C
:1057500020461A46FFF778FB14E00020002808BF17
:10576000002010BD94F89C02032808D1D4F8B80298
:10577000016921B10020C4F8D402204688472046A0
:10578000FFF7DEFB002010BD002070470000000086
:1057900080B5012180F89C12D0F8B82232B101798D
:1057A00052689047002818BF032080BD002080BDAC
:1057B00080B584B0039003980078C0BBFFE70399DD
:1057C00049F69860C2F200400290C0F808150399AB
:1057D000C1F8C8020021C4F208010160092141603A
:1057E0000222C2600021016182610122C261016264
:1057F00041628162C1620163FCF786F818B1FFE77C
:10580000FAF7DAFDFFE749F69860C2F2004001902E
:1058100080210091FBF794F9019800214022FBF7C9
:105820009BF9009A01980121FBF796F9FFE7002008
:1058300004B080BD0000000084B002908DF8071015
:105840000298D0F8C80200909DF8070000060028D2
:105850000ED5FFE700989DF8071001F07F0101EBDE
:10586000C10100EB810090F83E008DF80F000DE0C3
:1058700000989DF8071001F07F0101EBC10100EBDA
:10588000810090F87E028DF80F00FFE79DF80F0071
:1058900004B070470000000080B5D0F8D42200EBBF
:1058A0008202D2F8B82242B190F89C32032B02D186
:1058B000126A02B19047002080BD032080BD000025
:1058C00080B5D0F8D42200EB8202D2F8B82242B1DF
:1058D00090F89C32032B02D1526A02B1904700200B
:1058E00080BD032080BD000080B584B003908DF89A
:1058F0000B108DF80A20ADF8083000208DF8070055
:105900008DF806000398D0F8C8029DF80B10BDF87A
:1059100008209DF80A30FBF797FA8DF807009DF8EC
:105920000700FFF719FE8DF806009DF8060004B089
:1059300080BD00000000000080B586B005908DF8A5
:1059400013100392029300208DF807008DF80600D3
:105950000598D0F8C8029DF81310039A029BFBF734
:10596000EBFA8DF807009DF80700FFF7F5FD8DF8BD
:1059700006009DF8060006B080BD00000000000093
:10598000F0B581B0012680F89C620025C0F89452E1
:1059900004464560D0F8B802C4F8A45284F8A05276
:1059A00050B142683AB10021204690470546002890
:1059B00018BF032500E000250021002240232046D7
:1059C0004027FFF791FF8021002240232046A4F8C2
:1059D0006461C4F86071FFF787FFA68428462762D8
:1059E00001B0F0BD0000000090F89C12042903D122
:1059F00090F89D1280F89C12002070470000000073
:105A000080B590F89C12032905D1D0F8B81211B1D5
:105A1000C96901B18847002080BD00000000000076
:105A2000024600201174704780B582B001908DF855
:105A3000031000208DF802008DF801000198D0F8C5
:105A4000C8029DF80310FCF767F98DF802009DF875
:105A50000200FFF781FD8DF801009DF8010002B002
:105A600080BD000000000000B0B500F2AA25044689
:105A7000284600F091F80120C4F8940294F8AA0294
:105A8000B4F8B02200F01F01C4F89822022907D010
:105A900001290AD071B92046294600F015FAB0BD97
:105AA0002046294600F078FAB0BD2046294600F08D
:105AB0004BFCB0BD00F08001204600F001F8B0BD05
:105AC00080B582B001908DF8031000208DF802009F
:105AD0008DF801000198D0F8C8029DF80310FBF77B
